:020000040800F2
:1000000000000320692500086D2400086F24000803
:100010007124000873240008752400080000000003
:10002000000000000000000000000000772400082D
:1000300079240008000000007B2400087D240008CB
:10004000B9250008B9250008B9250008B925000818
:10005000B9250008B9250008B9250008B925000808
:10006000B9250008B9250008B9250008B9250008F8
:10007000B9250008B9250008B9250008B9250008E8
:10008000B9250008B9250008B925000895240008FD
:10009000912400088D24000881240008B925000857
:1000A000B9250008B9250008B9250008B9250008B8
:1000B000B9250008B9250008B9250008B9250008A8
:1000C000B9250008B9250008B9250008B925000898
:1000D000B9250008B9250008B9250008B925000888
:1000E000B9250008B9250008B9250008B925000878
:1000F000B9250008B9250008B9250008B925000868
:10010000B9250008B9250008B9250008B925000857
:10011000B9250008B9250008B9250008B925000847
:10012000B9250008B9250008B9250008B925000837
:10013000B9250008B9250008B9250008B925000827
:10014000B9250008B9250008B9250008B925000817
:10015000B9250008B9250008B9250008B925000807
:10016000B9250008B9250008B9250008B9250008F7
:10017000B9250008B9250008B925000800000000CD
:10018000B9250008B9250008B9250008B9250008D7
:10019000B9250008B9250008B9250008B9250008C7
:0C01A0000000000000000000B92500086D
:1001B00010B5054C237833B9044B13B10448AFF3A1
:1001C00000800123237010BD70000020000000009B
:1001D000D834000808B5034B1BB103490348AFF3FB
:1001E000008008BD0000000074000020D834000822
:1001F00001F0FF01102A2BDB10F0070F08D010F8D8
:10020000013B013A8B422DD010F0070F42B3F6D1DB
:10021000F0B441EA012141EA014122F007047FF0F4
:1002200000070023F0E80256083C85EA010586EA4B
:10023000010685FA47F5A3FA87F586FA47F6A5FA87
:1002400087F68EB9EED1F0BC01F0FF0102F0070293
:1002500032B110F8013B013A83EA010313B1F8D13E
:100260000020704701387047002D06BF354603381F
:10027000073815F0010F07D1013015F4807F02BF58
:10028000013015F4C03F0130F0BC0138704700BFA9
:1002900053B94AB9002908BF00281CBF4FF0FF31ED
:1002A0004FF0FF3000F07AB9ADF1080C6DE904CEE3
:1002B00000F006F8DDF804E0DDE9022304B0704741
:1002C0002DE9F0478C460D460446089E002B51D17F
:1002D0008A4217466DD9B2FA82FEBEF1000F0BD0EA
:1002E000CEF1200C01FA0EF520FA0CFC02FA0EF702
:1002F0004CEA050C00FA0EF44FEA174A250CBCFB39
:10030000FAF81FFA87F90AFB18CC45EA0C4508FBF6
:1003100009F3AB420AD9ED1908F1FF3280F02381CD
:10032000AB4240F22081A8F102083D44ED1AA4B28C
:10033000B5FBFAF00AFB105544EA054400FB09F945
:10034000A14509D9E41900F1FF3380F00A81A145E4
:1003500040F2078102383C44A4EB090440EA08401B
:100360000021002E61D024FA0EF400233460736063
:10037000BDE8F0878B4207D9002E54D0002186E8D3
:1003800021000846BDE8F087B3FA83F1002940F068
:100390008E80AB4202D3824200F2FA80841A65EB6F
:1003A00003050120AC46002E3FD086E81010BDE8C2
:1003B000F08712B90127B7FBF2F7B7FA87FEBEF153
:1003C000000F34D1EB1B3A0C1FFA87FC0121B3FB61
:1003D000F2F8250C02FB183345EA03450CFB08F341
:1003E000AB4207D9ED1908F1FF3002D2AB4200F25F
:1003F000D1808046ED1AA3B2B5FBF2F002FB105596
:1004000043EA05440CFB00FCA44507D9E41900F1BC
:10041000FF3302D2A44500F2B8801846A4EB0C04C6
:1004200040EA08409DE731463046BDE8F087CEF10E
:10043000200405FA0EF307FA0EF720FA04F83A0C36
:1004400025FA04F448EA0308B4FBF2F14FEA184530
:1004500002FB11441FFA87FC45EA044501FB0CF33B
:10046000AB4200FA0EF409D9ED1901F1FF3080F02A
:100470008A80AB4240F2878002393D44EB1A1FFA72
:1004800088F5B3FBF2F002FB103345EA034500FBAD
:100490000CF3AB4207D9ED1900F1FF386FD2AB4234
:1004A0006DD902383D44EB1A40EA01418FE7C1F1B2
:1004B000200722FA07F88B4005FA01F448EA030303
:1004C00020FA07FE4FEA134CFD404EEA040EB5FB3E
:1004D000FCF94FEA1E440CFB19551FFA83F844EA55
:1004E000054509FB08F4AC4202FA01F200FA01FAF0
:1004F00008D9ED1809F1FF3043D2AC4241D9A9F136
:1005000002091D442D1B1FFA8EFEB5FBFCF00CFBEF
:1005100010554EEA054400FB08F8A04507D9E41839
:1005200000F1FF3529D2A04527D902381C4440EA02
:100530000940A4EB0804A0FB02894C45C6464D4681
:1005400015D312D056B1BAEB0E0364EB050404FACE
:1005500007F7CB401F43CC40376074600021BDE8F3
:10056000F0871846F8E69046E0E6C245EAD2B8EBD6
:10057000020E69EB03050138E4E72846D7E7404659
:1005800091E78146BEE7014678E702383C4445E7FB
:10059000084608E7A8F102083D442BE7704700BF72
:1005A00038B50E4A0E4B054618784FF47A73B3FBF4
:1005B000F0F31068B0FBF3F000F030FA044658B9DD
:1005C0000F2D09D8024629464FF0FF3000F0E4F91C
:1005D000044B20461D6038BD012038BD08000020B6
:1005E000000000200400002008B50B4B1A6842F4FC
:1005F00000721A601A6842F480621A601A6842F443
:1006000080721A60032000F0B5F90020FFF7C8FFE0
:1006100001F010FC002008BD003C0240034A044BDE
:1006200011681B780B441360704700BF98000020CE
:1006300000000020014B1868704700BF98000020A0
:1006400038B50446FFF7F6FF631C1CBF054B1B784B
:10065000054618BFE418FFF7EDFF401B8442FAD8A7
:1006600038BD00BF0000002038B5044600286ED019
:1006700090F820300BB901F0F9FB2268136823F0E1
:1006800002031360FFF7D6FF054623685A689107F7
:1006900051D41A6842F001021A60FFF7CBFF0546F9
:1006A00023685A68D20754D5227E012A1A680CBFE3
:1006B00042F0800222F080021A60627E012A1A68EB
:1006C0000CBF42F0400222F040021A60A27E012AD2
:1006D0001A680CBF42F0200222F020021A60E27E6B
:1006E000012A1A680CBF22F0100242F010021A60B0
:1006F000227F012A1A680CBF42F0080222F0080289
:100700001A60627F012A1A680CBF42F0040222F0CC
:1007100004021A60E168A2680A4321690A43616918
:100720000A43616801390A43DA61002001236062EB
:1007300084F8203038BDFFF77DFF401B0A28A4D97C
:10074000636A43F400336362052384F82030012098
:1007500038BDFFF76FFF401B0A28A1D9F0E77047AB
:1007600070477047704770477047704770477047D1
:1007700070477047704770472DE9F84F03685E690E
:10078000D3F804909F68D3F80CB0D3F810A0D3F836
:10079000188016F00104054622D017F0010407D096
:1007A0000122B9079A6040F1A380FFF7D8FF002427
:1007B000FB0509D52B684FF48072B8059A6040F1AB
:1007C000A5802846FFF7CCFFFB0309D52B684FF423
:1007D0008032B8039A6040F1A7802846FFF7C1FF36
:1007E000330707D51BF0100F1FBF2B68102244F4EE
:1007F0000074DA60770708D51BF0080F05D02B6866
:100800000822DA602846FFF7B1FFB00706D52B684B
:10081000DB68990702D02846FFF7A7FF720607D5C5
:100820001AF0100F1FBF2B68102244F480641A6165
:10083000B30608D51AF0080F05D02B6808221A61F4
:100840002846FFF795FFF70606D52B681B69980722
:1008500002D02846FFF78BFFB10308D519F0100F1F
:1008600005D02B6810225A602846FFF782FFF2035A
:1008700008D519F0080F05D02B6808225A602846C1
:10088000FFF778FF33042AD519F0040F2A6824D023
:10089000F70504D518F0010F18BF44F00104B005A6
:1008A00004D518F0020F18BF44F00204710504D5F6
:1008B00018F0040F18BF44F0040433050DD518F0E8
:1008C00070030AD0302B4CD03CD8102B43D0202BB7
:1008D00044D0936923F070039361042353602CB1D7
:1008E0006B6A1C436C622846FFF745FFBDE8F88F32
:1008F0007A0705D417F0080405D1FFF733FF57E74F
:100900004FF4006454E74FF4805451E7790502D561
:1009100044F4005458E73A0502D544F4804453E7C0
:100920002846FFF720FF4FE7790302D544F400443F
:1009300056E73A0302D544F4803451E72846FFF7DE
:1009400013FF4DE7502B0FD0602B10D0402BC0D1A0
:1009500044F04004BDE744F00804BAE744F0100452
:10096000B7E744F02004B4E744F08004B1E744F46E
:100970008074AEE7074AD36823F4E0631B041B0CC2
:1009800043F0BF63000243F4003300F4E06003432C
:10099000D360704700ED00E0174B30B5DC68C4F35E
:1009A0000224C4F10703251D042B28BF0423062DB0
:1009B0004FF0010505FA03F303F1FF338CBF033C4D
:1009C00000241940A14005FA04F4013C224000280B
:1009D00042EA01024FEA0212ADBF00F1604000F0AE
:1009E0000F00064B00F56140B5BFD2B2D2B21A5427
:1009F00080F8002330BD00BF00ED00E014ED00E002
:100A0000002808DB4209012300F01F0003FA00F070
:100A1000014B43F82200704700E100E00138B0F1DB
:100A2000807F0AD2064B074A5860F02182F82310D3
:100A30000020072298601A6070470120704700BFAD
:100A400010E000E000ED00E02DE9F04F85B00B680C
:100A5000DFF8C4816E4ADFF8C491019300234FF0A0
:100A6000010E019C0EFA03FE0EEA0406B64540F0A4
:100A7000B6804C6824F01007022F16D14FEAD30A33
:100A800000EB8A0A03F0070BDAF820504FEA8B0BD1
:100A90004FF00F0C0CFA0BFC25EA0C0C0D6905FA53
:100AA0000BF545EA0C05CAF820504FEA430A032526
:100AB000D0F800B005FA0AF5ED4304F0030C0BEA98
:100AC000050B0CFA0AFC013F4CEA0B0C012FC0F895
:100AD00000C011D8876807EA050BCF6807FA0AFC3F
:100AE0004CEA0B078760476827EA0E0EC4F300172D
:100AF0009F4047EA0E074760C7683D408F6807FA86
:100B00000AF73D43C560E50069D54FF0000BCDF80D
:100B10000CB0D8F844703F4D47F48047C8F8447093
:100B2000D8F8447007F480470397039F23F0030726
:100B300007F1804707F59C3703F0030CD7F808A0AE
:100B40004FEA8C0C4FF00F0E0EFA0CFEA8422AEA68
:100B50000E0E4BD005F58065A84249D005F580659D
:100B6000A84247D005F58065A84245D005F58065C7
:100B7000A84243D0484543D005F50065A84241D07E
:100B800005F58065A8423FD005F58065A8423DD0B7
:100B900005F58065A84214BF0A25092505FA0CF55C
:100BA00045EA0E05BD601568F74314F4803F0CBF9D
:100BB0003D4035431560556814F4003F0CBF3D407F
:100BC00035435560956814F4801F0CBF3D40354394
:100BD0009560D568A40254BF3D403543D5600133CC
:100BE000102B7FF43CAF05B0BDE8F08F5D46D5E734
:100BF0000125D3E70225D1E70325CFE70425CDE77B
:100C00000525CBE70625C9E70725C7E70825C5E77A
:100C1000003C014000000240003802400014024045
:100C20000AB1816170470904FBE7000070B5044612
:100C300008B9012070BD90F83D3003F0FF021BB9E8
:100C400080F83C2001F068F92268242384F83D30C4
:100C5000136823F00103136000F014FB6568414B37
:100C60009D424DD8404B9842E3D922683F49536892
:100C7000B0FBF1F123F03F030B435360136A23F001
:100C80003F03013119431162D169364B21F44F41C1
:100C90009D4221F0FF0100F1FF3048D86D00B0FB0C
:100CA000F5F00130C0F30B03042B38BF04230B43D2
:100CB000D3611168206AE36921F0C00103430B434B
:100CC00013609168E068236921F40341034321F034
:100CD000FF010B439360D168A069636921F0FF01B4
:100CE00003430B43D360136843F0010313600020F8
:100CF0002023206484F83D30206384F83E0070BDDA
:100D00001B4B984295D92268184E5368B0FBF6F6F3
:100D100023F03F0333435360136A4FF496717143DA
:100D200023F03F034FF47A76B1FBF6F1A9E7A3680D
:100D300053B905EB4503B0FBF3F0431CC3F30B03BE
:100D40006BB143F40043B2E719236B43B0FBF3F0FC
:100D5000431CC3F30B0313B143F44043A7E7012340
:100D6000A5E700BFA08601007F841E0040420F005F
:100D7000FF083D0090F83D20D2B2202A10B516D1D0
:100D8000242380F83D3003681C6824F001041C60B3
:100D90005C6A24F010045C625C6A21435962196841
:100DA00041F00101196080F83D20002010BD0220B3
:100DB00010BD30B590F83D40E4B2202C16D1026849
:100DC000242380F83D30156825F001051560556A2B
:100DD0004FF6F0732B400B439BB25362136843F002
:100DE0000103136080F83D40002030BD022030BD7B
:100DF0002DE9F341044618B9012002B0BDE8F081A5
:100E00000368DD0710D42368980758D423681A07AD
:100E100000F19A8023685B0700F1B880A269002A7C
:100E200040F019810020E8E7A64B9A6802F00C0216
:100E3000042A07D09A6802F00C02082A0AD15B68DB
:100E4000590207D59F4B1B689A03DCD56368002BBA
:100E5000D9D1D1E763689B4DB3F5803F11D12B68A1
:100E600043F480332B60FFF7E5FB964D06462B6875
:100E70009B03C8D4FFF7DEFB801B6428F7D903204F
:100E8000BBE7B3F5A02F04D12B6843F480232B607C
:100E9000E5E72A6822F480322A602A6822F4802258
:100EA0002A60002BDFD1FFF7C5FB06462B689F03A6
:100EB000A9D5FFF7BFFB801B6428F7D9DFE7814B7B
:100EC0009A6812F00C0F07D09A6802F00C02082AF8
:100ED00011D15B685E020ED47A4B1A68950702D571
:100EE000E268012A88D11A68216922F0F80242EAF0
:100EF000C1021A608AE7E268734BB2B101221A603C
:100F0000FFF798FB6F4D06462B68980707D52B68AF
:100F1000226923F0F80343EAC2032B6076E7FFF768
:100F200089FB801B0228EFD9A9E71A60FFF782FB33
:100F3000644D06462B6899077FF568AFFFF77AFB8B
:100F4000801B0228F6D99AE76269604B7AB10122C8
:100F50001A60FFF76FFB5B4D06466B6F9F073FF50F
:100F600059AFFFF767FB801B0228F6D987E71A60A5
:100F7000FFF760FB534D06466B6F98077FF54AAF4E
:100F8000FFF758FB801B0228F6D978E74D4B1A6C07
:100F900012F0805228D101921A6C42F080521A64E9
:100FA0001B6C03F080530193019B0126484D2B6875
:100FB000D9051BD5A368434D012B27D12B6F43F0D7
:100FC00001032B67FFF736FB3E4D074641F2883899
:100FD0002B6F9B0739D5002E3FF420AF394A136C95
:100FE00023F08053136419E70026DFE72B6843F4EE
:100FF00080732B60FFF71EFB07462B68DA05D9D4F8
:10100000FFF718FBC01B0228F7D938E7052B04D1DE
:101010002B6F43F004032B67D0E72A6F22F0010205
:101020002A672A6F22F004022A67002BCAD1FFF731
:1010300001FB41F2883807462B6F9807CBD5FFF7A5
:10104000F9FAC01B4045F7D919E7FFF7F3FAC01BBF
:101050004045BDD913E71B4DAB6803F00C03082BCB
:101060003FF4CAAE1B4E0023022A336034D1FFF78F
:10107000E1FA07462B6899011ED4226AE3691343FB
:10108000626A43EA8213E26A43EA0263A26A0D4C8F
:101090005208013A43EA02436B6001233360FFF7D1
:1010A000C9FA054623689A013FF5BCAEFFF7C2FABC
:1010B000401B0228F6D9E2E6FFF7BCFAC01B022863
:1010C000D8D9DCE60038024000004742800E474293
:1010D0000070004060004742FFF7ACFA04462B68FE
:1010E0009B017FF59FAEFFF7A5FA001B0228F6D9FA
:1010F000C5E600BF134908B58B6803F00C03042B49
:1011000003D0082B03D0104808BD104808BD4A681A
:101110004B68496813F4800314BF0C480A48C1F3B4
:10112000881118BF002302F03F02A1FB0001FFF766
:10113000AFF8044B5B68C3F3014301335B00B0FBC2
:10114000F3F008BD003802400024F40040787D012F
:101150002DE9F0410D46044610B90120BDE8F081AB
:10116000444B1A6802F00F028A4228D321688F0785
:101170002DD4C80740D43F4B1A6802F00F029542A5
:1011800066D3226851076CD4130707D53A4A216900
:10119000936823F4604343EAC1039360FFF7AAFF17
:1011A000354B364A9B68C3F30313D35CD840344BAA
:1011B00018600020FFF7F4F90020BDE8F081CAB202
:1011C0001A701B6803F00F039942C6D1CEE72A4B71
:1011D00011F0040F1EBF9A6842F4E0529A600E07A5
:1011E00042BF9A6842F460429A609A68A06822F00E
:1011F000F00202439A60BCE762681F4B012A1DD1CE
:101200001B6813F4003FA8D01B4EB36823F0030300
:101210001343B360FFF70EFA41F288380746B3680C
:10122000626803F00C03B3EB820FA4D0FFF702FA5D
:10123000C01B4045F3D90320BDE8F081911E012970
:101240001B6802D813F0007FDDE713F0020FDAE726
:10125000EAB21A701B6803F00F039D427FF47DAF62
:101260008FE70549E0688B6823F4E05303438B6004
:101270008AE700BF003C02400038024028350008E1
:1012800008000020044B054A9B68C3F38223D35C0B
:10129000034A1068D84070470038024038350008CB
:1012A00008000020044B054A9B68C3F34233D35C1B
:1012B000034A1068D84070470038024038350008AB
:1012C00008000020F8B504460E4615461F46216862
:1012D0008A6836EA020301D00020F8BD6B1CF7D003
:1012E000FFF7A8F9C01B8542F1D823685A6822F09D
:1012F000E0025A606268B2F5827F0AD1A268B2F554
:10130000004F02D0B2F5806F03D11A6822F040027C
:101310001A60A26AB2F5005F07D11A6822F400527F
:101320001A601A6842F400521A60012384F851309E
:10133000002384F850300320F8BD000073B5134635
:10134000134A144E15684268B5FBF6F64FF47A75E9
:101350007543B2F5827F044601950DD10A4680217E
:10136000FFF7B0FF10B9002002B070BD636D43F00D
:10137000200363650320F7E7019B002BF3D0019B5B
:10138000013B019323689B681B06F5D4EBE700BF84
:101390000800002000366E0110B50446002836D043
:1013A0000023836290F8513003F0FF021BB980F8EC
:1013B000502000F037FE2168A068A269022384F85B
:1013C00051300B6823F040030B6063680343E0680F
:1013D00003432069034360690343E0690343206AD0
:1013E0000343A06A034302F4007003430B60120C32
:1013F000636A02F004021A434A60CB6923F4006373
:10140000CB6100200123606584F8513010BD0120BC
:1014100010BD2DE9F7431E4690F850300A9F012B6E
:1014200004460D46914600F0E280012380F85030DA
:10143000FFF700F994F851306168DBB2012B804668
:101440000AD0B1F5827F40F0D080A068002840F03B
:10145000CC80042B40F0C980002D00F0C480B9F18D
:10146000000F00F0C080002E00F0BD8094F85130D5
:10147000C4F83890042B1CBF052384F85130002396
:101480006365236463642368E687E6861A68A68733
:10149000500658BF1A68256358BF42F04002A6861E
:1014A00058BF1A60E268B2F5006F58D109B1012E39
:1014B00007D135F8022BDA60E38E2563013B9BB23E
:1014C000E3860125E38E9BB2ABB9E38F9BB293B960
:1014D000424639462046FFF731FF002840F0818020
:1014E000A368002B32D123680190DA6801929B68CF
:1014F0000193019B2AE02268936899070DD5E38E3A
:101500009BB253B14DB1236B33F8021BD1602363FF
:10151000E38E013B9BB2E38600259368DB070CD585
:10152000E38F9BB24BB1A36BD26823F8022BA3636A
:10153000E38F013B9BB2E3870125FFF77BF8A0EB2C
:1015400008008742BED87E1CBCD00320012384F84B
:101550005130002384F8503003B0BDE8F08309B166
:10156000012E08D12A781A73236B01332363E38E8B
:10157000013B9BB2E3860125E38E9BB21BB9E38F4F
:101580009BB2002BA4D02268936898070ED5E38EF7
:101590009BB25BB155B1236B1B781373236B013383
:1015A0002363E38E013B9BB2E386002522689368A8
:1015B000D9070DD5E38F9BB253B1A36BD2681A70D4
:1015C000A36B0133A363E38F013B9BB2E387012548
:1015D000FFF730F8A0EB08008742CDD87B1CCBD0BA
:1015E000B3E7202363650120B0E70220AEE70220C5
:1015F000B2E700002DE9F0470668C2683369C169A7
:1016000023F4405313433361044683680069F2684E
:101610000343606922F41642034322F00C020B4399
:101620001343F3607369A26923F440731343B1F564
:10163000004F73617A4B7CD19E4203D003F58063E7
:101640009E4244D1FFF72EFE192505FB00F360688A
:101650004FF064094000B3FBF0F3B3FBF9F34FEA3A
:101660000318FFF71FFE636868435B00B0FBF3F7E6
:10167000FFF718FE636868435B00B0FBF3F3B3FB4E
:10168000F9F309FB1373DB003233B3FBF9F35B00AF
:1016900003F4F877FFF706FE626868435200B0FB78
:1016A000F2FAFFF7FFFD636868435B00B0FBF3F3FA
:1016B000B3FBF9F309FB13A3DB003233B3FBF9F3FC
:1016C00003F0070343443B44B360BDE8F087FFF7F2
:1016D000D9FD192505FB00F360684FF0640940004F
:1016E000B3FBF0F3B3FBF9F34FEA0318FFF7CAFDBE
:1016F000636868435B00B0FBF3F7FFF7C3FD636803
:1017000068435B00B0FBF3F3B3FBF9F309FB13731E
:10171000DB003233B3FBF9F35B0003F4F877FFF738
:10172000B1FD626868435200B0FBF2FAFFF7AAFD10
:10173000B9E79E4202D03B4B9E4240D1FFF7B2FD3B
:10174000676819254FF0640905FB00F3BF00B3FB80
:10175000F7F3B3FBF9F31F01FFF7A4FD63686843D8
:101760009B00B0FBF3F8FFF79DFD636868439B00A7
:10177000B0FBF3F3B3FBF9F309FB13831B01323323
:10178000B3FBF9F303F0F008FFF78CFD62686843E0
:101790009200B0FBF2FAFFF785FD636868439B0097
:1017A000B0FBF3F3B3FBF9F309FB13A31B013233D3
:1017B000B3FBF9F303F00F0343EA080383E7FFF7F2
:1017C00061FD676819254FF0640905FB00F3BF0050
:1017D000B3FBF7F3B3FBF9F31F01FFF753FD6368A6
:1017E00068439B00B0FBF3F8FFF74CFD6368684368
:1017F0009B00B0FBF3F3B3FBF9F309FB13831B016D
:101800003233B3FBF9F303F0F008FFF73BFD6268F6
:1018100068439200B0FBF2FAFFF734FDBDE700BF6A
:101820000010014000140140F8B504460E4617466A
:101830001D4621680B6836EA030301D10020F8BD7C
:101840006B1CF7D095B92368DA6822F4D072DA609D
:101850005A6922F001025A61202384F8393084F851
:101860003A30002384F838300320F8BDFEF7E2FE5A
:10187000C01B8542DDD2E6E710B5044640B390F8C0
:10188000393003F0FF021BB980F8382000F0A8FCC3
:101890002268242384F83930D36823F40053D360BA
:1018A0002046FFF7A7FE23681A6922F490421A61C6
:1018B0005A6922F02A025A61DA6842F40052DA6068
:1018C00000202023E06384F8393084F83A3010BDDA
:1018D000012010BD2DE9F0411F4690F83930202B32
:1018E00004460D4690464FD100294AD0002A48D0E0
:1018F00090F83830012B47D0012380F8383000238E
:10190000C363212380F83930FEF794FEA4F82480C5
:101910000646A4F82680E38C9BB26BB93B46324660
:1019200040212046FFF780FFB0B9202384F83930EA
:1019300084F83800BDE8F081E38C013B9BB2E3847E
:10194000A368B3F5805F32463B464FF080012046E6
:101950000ED1FFF769FF10B10320BDE8F0812B889D
:101960002268C3F308035360236943B90235D2E701
:10197000FFF75AFF0028EFD123682A785A60013513
:10198000C9E70120BDE8F0810220BDE8F081000038
:1019900007B502A94FF6FF7341F8040D0122034871
:1019A000FFF798FF019803B05DF804FB4C0300209B
:1019B00010B594B03022002108A800F029FE0021C3
:1019C000142203A800F024FE0024174B01941A6C83
:1019D00042F080521A641B6C144A03F08053019346
:1019E000019B0294136823F4404343F48043136043
:1019F00013680E9403F440430293029B022308935E
:101A000001230B9308A810230C93FFF7F1F90F2380
:101A1000214603A803930494059406940794FFF7C2
:101A200097FB14B010BD00BF0038024000700040AA
:101A30002DE9804891B0FEF7D7FDFFF7B9FF1422DA
:101A400000210BA8002400F0E3FDA54B06941A6BBF
:101A5000A448A54D42F010021A631A6B02F010025E
:101A60000692069A07941A6B42F004021A631A6BE4
:101A700002F004020792079A08941A6B42F00102DE
:101A80001A631A6B02F001020892089A09941A6B01
:101A900042F002021A631A6B02F002020992099ADA
:101AA0000A941A6B42F008021A631B6B03F00803D6
:101AB00022460A9308210A9BFFF7B2F82246012129
:101AC0008A48FFF7ADF8224648F202018848FFF73E
:101AD000A7F8012608230BA982480B930C960D94B6
:101AE0000E94FEF7B1FF0BA980480B960C960D964D
:101AF0000E94FEF7A9FF48F202030BA97C480B9352
:101B00000C960D940E94FEF79FFF7A4B7A4A2B6049
:101B100028464FF480436A6003922B61AC60EC600E
:101B20006C61AC61EC612C62FFF780F821462846BD
:101B3000FFF720F921462846FFF73BF96F4D704B20
:101B4000AC604FF4827B85E8080802234FF4007AEA
:101B50004FF00A092B6128461823EC606E61EB6197
:101B60002C626C62AC62C5F818A0C5F82C90FFF727
:101B700013FC6448644B84604FF4E1380C2780E820
:101B80000801C46004618461C4614761FFF774FEA9
:101B90005E485F4B846080E80801C4600461846132
:101BA000C4614761FFF768FE5A485B4A84600523B9
:101BB00080E80C004FF4A02303614FF48013C4604D
:101BC0004361047644768476C67604774477FEF7DC
:101BD0004BFD524B039A52495A6018464FF48042CB
:101BE0001A6119609C60DC605C619C61DC611C6254
:101BF0000393FFF71BF8039B21461846FFF7BAF83B
:101C0000039B21461846FFF7D4F8464B464A9C6092
:101C100083E8040802221A6118461822DC605E611B
:101C2000DA611C625C629C62C3F818A0C3F82C9055
:101C30000393FFF7B1FB3D483D4A846080E8040808
:101C4000C46004614461C461046244628462C0F897
:101C500018A0C0F82C90FFF79FFB3648364A8460E6
:101C600080E80408C46004614461C46104624462A1
:101C70008462C0F818A0C0F82C90FFF78DFB2F48A5
:101C80002F4A846080E80401C46004618461C461F7
:101C90004761FFF7F1FD2B482B4A846080E804017F
:101CA000C46004618461C4614761FFF7E5FD2748B2
:101CB000274A846080E80401C46004618461C461CF
:101CC0004761FFF7D9FD2348234A846080E8040177
:101CD000C46004618461C4614761FFF7CDFD3DE0EC
:101CE0000038024000100240C801002000080240F5
:101CF0000000024000540040A0860100F0000020D7
:101D000000380040B40200200010014024040020EC
:101D10000044004064040020006400409C00002057
:101D2000005C0040CC030020003001401C02002079
:101D3000003C0040F4020020003401407402002006
:101D40000050004048010020007800404C03002073
:101D5000007C004088010020004800402D482E4AA9
:101D6000846080E80401C46004618461C4614761E7
:101D7000FFF782FD039B294E04F18044984604F549
:101D800002348F23002726488DF814308DF8157003
:101D900000F0BAFC4FF47A70FEF752FC3A4602218A
:101DA0003046FEF73DFF642300930BAA022305A9EA
:101DB0001C48FFF72EFB98F85130022BFBD0012274
:101DC00002213046FEF72CFF9DF82D209DF82C10A7
:101DD000154800F025FC002201212046FEF720FFD7
:101DE000642300930BAA022305A91048FFF711FBF7
:101DF00095F85130022BFBD0012211462046FEF708
:101E00000FFF9DF82D209DF82C10094800F008FCCC
:101E1000B7E700BF8C03002000140140000002401F
:101E2000F0340008CC030020FD340008F00000204E
:101E30001335000882B00C4B002100915A6C42F41B
:101E400080425A645A6C02F480420092009A0191D6
:101E50001A6C42F080521A641B6C03F08053019399
:101E6000019B02B0704700BF0038024010B5044625
:101E700088B01422002103A800F0CAFB2268244B7A
:101E80009A4243D1002403F5EA3301941A6C2148A5
:101E900042F000721A641A6C02F000720192019A08
:101EA00002941A6B42F001021A631B6B03F00103E8
:101EB0000293029B4FF4C053039302230493032322
:101EC000069303A909230793FEF7BEFD2246214688
:101ED0001320FEF761FD1320FEF792FD22462146F6
:101EE0001420FEF759FD1420FEF78AFD22462146F4
:101EF0001520FEF751FD1520FEF782FD1620224623
:101F00002146FEF749FD1620FEF77AFD08B010BD08
:101F100000640040000002402DE9F04314228BB021
:101F2000044600210DEB020000F072FB2368374AE3
:101F3000934226D1364C374800250095236B43F059
:101F400002032363236B03F002030093009BC0236F
:101F5000059312230693012307930323089305A9EE
:101F600004230993FEF770FD0195236C43F40013DD
:101F70002364236C03F400130193019B0BB0BDE8B1
:101F8000F083254A9342F9D1214C2448002502953B
:101F9000236B43F004032363236B03F004030293D6
:101FA000029B0395236B43F001032363236B03F030
:101FB00001030393039B4FF012094FF400734FF09A
:101FC00001080327042605A90593CDF81890CDF83C
:101FD0001C8008970996FEF737FD4FF4807305A91A
:101FE0000F480593CDF81890CDF81C8008970996F6
:101FF000FEF72AFD0495236C43F400032364236C4D
:1020000003F400030493049BB8E700BF00540040AE
:102010000038024000040240005C0040000802401A
:1020200000000240F0B5044691B0142200210BA834
:1020300000F0EEFA2368604A934223D15F4B604878
:10204000002101915A6C42F480525A645A6C02F495
:1020500080520192019A02911A6B42F001021A63B6
:102060001B6B03F001030293029BE0230B930223FB
:102070000C9303230E9305230F930BA9FEF7E4FCA7
:1020800011B0F0BD4F4A934237D14C4B4E4800221D
:102090000392196C41F480411964196C01F4804178
:1020A000039103990492196B41F004011963196BB0
:1020B00001F004010491049905921A6B42F00202A6
:1020C0001A631B6B03F002030593059B02270C2385
:1020D0000126032505240BA90B930C970D960E954D
:1020E0000F94FEF7B1FC4FF480630B930C970D96A1
:1020F0000E950F940BA93548C0E7354A934236D167
:102100002E4B3148002406941A6C42F400421A64A3
:102110001A6C02F400420692069A07941A6B42F077
:1021200004021A631A6B02F004020792079A0894D9
:102130001A6B42F008021A631B6B03F00803089342
:10214000089B4FF440630B930226062303250BA93B
:102150000F930C960E95FEF777FC40230B93052307
:102160000C960D940E950F930BA91A4886E71A4A00
:10217000934285D1114B1948002109915A6C42F4C0
:1021800000525A645A6C02F400520992099A0A9158
:102190001A6B42F010021A631B6B03F010030A93D0
:1021A0000A9B64230B9302230C9303230E930523B2
:1021B0000F930BA962E700BF0030014000380240D6
:1021C00000000240003800400008024000040240C5
:1021D000003C0040000C024000340140001002406E
:1021E000F0B5044697B01422002111A800F010FAAF
:1021F0002368914A934237D1904B91480022019233
:10220000196C41F480111964196C01F48011019169
:1022100001990292196B41F004011963196B01F0E5
:1022200004010291029903921A6B42F008021A63A8
:102230001B6B03F008030393039B02274FF48053A7
:1022400001260325082411A91193129713961495BA
:102250001594FEF7F9FB0423119312971396149526
:10226000159411A9774825E0774A934226D1734BFC
:10227000002104911A6C42F080421A641A6C02F038
:1022800080420492049A05911A6B42F010021A637C
:102290001B6B03F010030593059B4FF4C073119360
:1022A00002231293012313930323149367480823F3
:1022B000159311A9FEF7C8FB17B0F0BD644A93420D
:1022C0001CD15E4B002106911A6C42F000421A6448
:1022D0001A6C02F000420692069A07911A6B42F0BD
:1022E00010021A631B6B03F0100302220793079B73
:1022F00012920323012211931392D6E7554A934277
:1023000023D14E4B002108915A6C42F010025A64BE
:102310005A6C02F010020892089A09911A6B42F066
:1023200001021A631B6B03F001030993099B4FF42D
:10233000C063119302231293012313930323149375
:102340000723159311A94448B4E7444A934217D18F
:102350003A4B00210A911A6C42F400321A641A6C4A
:1023600002F400320A920A9A0B911A6B42F00102AF
:102370001A631B6B03F001030B930B9B0C23D8E731
:10238000374A934231D12D4B364800220C92196CBA
:1023900041F480211964196C01F480210C910C998D
:1023A0000D92196B41F002011963196B01F00201E2
:1023B0000D910D990E921A6B42F008021A631B6B75
:1023C00003F008030E930E9B02274FF400630126CF
:1023D0000325072411A911931297139614951594A8
:1023E000FEF732FB4FF4807336E71F4A93427FF4C7
:1023F00063AF124B124800210F915A6C42F0200239
:102400005A645A6C02F020020F920F9A10911A6BC4
:1024100042F004021A631B6B03F004031093109B39
:10242000C0231193022312930123139303231493C4
:102430000823159311A93DE70050004000380240E1
:1024400000080240000C02400078004000100240EA
:10245000007C0040001001400000024000440040A9
:102460000048004000040240001401407047FEE7AD
:10247000FEE7FEE7FEE7704770477047FEF7CEB80D
:102480000148FEF779B900BF64040020FFF7F8BFE8
:10249000FFF7F6BFFFF7F4BF70B50E4615460C46C2
:1024A000A31B9D4201DC284670BDAFF3008004F8F9
:1024B000010BF5E770B50E4615460C46A31B9D4271
:1024C00001DC284670BD14F8010BFFF761FAF5E74F
:1024D00008B50A4B1968024609B909491960186814
:1024E000694602448A4206D900F068F80C2303606A
:1024F0004FF0FF3008BD1A6008BD00BF8C000020FF
:10250000900400204FF0FF3070474FF400534B60B1
:102510000020704701207047002070470F49D1F814
:10252000883043F47003C1F888300D4B1A680020DE
:1025300042F001021A6098601A6822F0847222F454
:1025400080321A60074A5A601A6822F480221A60A0
:10255000D8604FF000638B60704700BF00ED00E073
:102560000038024010300024DFF834D0002103E0AE
:102570000C4B5B58435004310B480C4B42189A42A9
:10258000F6D30B4A02E0002342F8043B094B9A427F
:10259000F9D3FFF7C3FF00F017F8FFF749FA7047C8
:1025A00000000320E8350008000000207000002033
:1025B0007000002090040020FEE70000014B186826
:1025C000704700BF0C00002070B50D4E0D4CA41BD1
:1025D000A4100025A54209D10B4E0C4C00F07CFF45
:1025E000A41BA4100025A54205D170BD56F82530C6
:1025F00098470135EEE756F8253098470135F2E760
:10260000E0350008E0350008E0350008E435000852
:1026100002440346934200D1704703F8011BF9E7D7
:102620000FB40A4B13B51C6824B1A36913B9204633
:1026300000F024FA05AB049AA1680193204600F04B
:10264000E1FB02B0BDE8104004B070470C00002070
:1026500070B50E46054618B183690BB900F00EFA45
:10266000AB69AC6813B9284600F008FA234B9C42CA
:1026700017D16C68A3891B071DD52369DBB1013E07
:10268000A36816F8011F013BA360E9B9002B2EDAFD
:1026900022460A21284600F03FF8013011D00A20D6
:1026A00070BD174B9C4201D1AC68E3E7154B9C42CF
:1026B00008BFEC68DEE72146284600F07FF80028D6
:1026C000DDD04FF0FF3070BD002B04DAA2699342D9
:1026D00006DB0A2904D023685A1C22601970CFE750
:1026E0002246284600F018F80130C9D1E9E72368EE
:1026F0000A205A1C2260187070BD00BF64350008A3
:102700008435000844350008024B01461868FFF77D
:102710009FBF00BF0C000020F8B50E4614460546CA
:1027200018B183690BB900F0A9F9214B9C422AD159
:102730006C68A369A360A3891A072ED5236963B3C4
:1027400023692068C01A6369F6B29842374604DBF1
:102750002146284600F028F928BBA368013BA36066
:1027600023685A1C22601E7063690130984204D0AD
:10277000A389DB0719D50A2E17D12146284600F078
:1027800013F990B10FE00B4B9C4201D1AC68D0E73C
:10279000094B9C4208BFEC68CBE72146284600F075
:1027A0000DF80028CCD04FF0FF373846F8BD00BFF9
:1027B000643500088435000844350008324B70B594
:1027C0001D6806460C4625B1AB6913B9284600F0D2
:1027D00055F92E4B9C420FD16C68B4F90C309AB26B
:1027E00015072CD4D00611D40922326043F04003DF
:1027F000A3814FF0FF3070BD254B9C4201D1AC68E6
:10280000EBE7244B9C4208BFEC68E6E7510712D582
:10281000616B41B104F14403994202D0304600F0AB
:102820001BFA00236363A38923F02403A3810023FD
:10283000636023692360A38943F00803A3812369AC
:102840004BB9A38903F42073B3F5007F03D021466D
:10285000304600F0C1F9A28912F001030CD0002328
:10286000A36063695B42A361236953B9B4F90C3077
:1028700013F08000BAD170BD920758BF6369A3609E
:10288000F2E70020F7E700BF0C00002064350008E5
:1028900084350008443500088A892DE9F041054651
:1028A00010070C465AD44B68002B05DC0B6C002B30
:1028B00002DC0020BDE8F081E66A002EF9D000239A
:1028C00012F480522F682B6033D0606DA3895A07B1
:1028D00005D56368C01A636B0BB1236CC01A002363
:1028E0000246E66A216A2846B047431CA38906D1FE
:1028F00029681D294BD82B4ACA40D60747D5002244
:102900006260D9042269226004D5421C01D12B687F
:1029100003B96065616B2F600029CAD004F14403DC
:10292000994202D0284600F097F900206063BDE884
:10293000F081216A01232846B047411CC6D12B688B
:10294000002BC3D01D2B01D0162B01D12F60B0E777
:10295000A38943F04003A381BDE8F0810F69002FF4
:10296000A7D093070E6808BF4B690F6018BF0023FC
:10297000A6EB07088B60B8F1000F9ADD43463A4694
:10298000216AA66A2846B047002807DCA38943F0DD
:102990004003A3814FF0FF30BDE8F0810744A8EB6E
:1029A0000008E8E70100402038B50B6905460C46F1
:1029B000DBB118B183690BB900F060F80C4B9C4295
:1029C00009D16C68B4F90C307BB121462846BDE8CA
:1029D0003840FFF761BF074B9C4201D1AC68F1E77B
:1029E000054B9C4208BFEC68ECE7002038BD00BFF7
:1029F000643500088435000844350008014900F0BA
:102A0000A9B800BFA9290008002310B50446036037
:102A10004360836081814366C28103614361836156
:102A2000194608225C30FFF7F3FD054B6362054B46
:102A3000A362054BE362054B2462236310BD00BF14
:102A40007D3300089F330008D7330008FB330008AC
:102A500070B54A1E682555430E4605F1740100F015
:102A600049F9044640B1002180E842000C30A060E2
:102A700005F16802FFF7CCFD204670BD836910B5F3
:102A8000044633BB8364C3640365124B124A1B685C
:102A90008262984204BF0123836100F01FF86060E6
:102AA000204600F01BF8A060204600F017F8002236
:102AB000E06004216068FFF7A7FF01220921A068F8
:102AC000FFF7A2FF02221221E068FFF79DFF01231A
:102AD000A36110BD40350008FD290008F8B51C4B66
:102AE0001E68B369074613B93046FFF7C7FF48367B
:102AF000B4687368013B03D5336833B13668F7E7D0
:102B0000B4F90C506DB16834F4E704213846FFF78E
:102B10009FFF30600028F1D10C233B600446204623
:102B2000F8BD4FF6FF73E3810123A381656625603D
:102B3000A560656025616561A5610822294604F1EB
:102B40005C00FFF765FD6563A563A564E564E6E7E2
:102B5000403500082DE9F8438046894600F14804D5
:102B6000002614B93046BDE8F883A5686768013FC0
:102B700001D52468F5E7AB89012B07D9B5F90E30EB
:102B8000013303D029464046C84706436835EEE77F
:102B900070B50E46B1F90E10002990B014461D46CE
:102BA00007DA00232B60B3891A0610D44FF4806330
:102BB0000EE001AA00F048FC0028F2DB029A02F4C1
:102BC0007042A2F500535A425A412A60EEE7402370
:102BD0000020236010B070BD8B8973B59D07064639
:102BE0000C4607D504F14703236023610123636189
:102BF00002B070BD01AB6A46FFF7CAFF00990546F7
:102C0000304600F077F848B9B4F90C309A05EFD4A3
:102C100023F0030343F00203A381E3E70D4BB36208
:102C2000A389206043F08003A381009B6361019B23
:102C300020615BB1B4F90E10304600F017FC28B1EA
:102C4000A38923F0030343F00103A381A3891D4358
:102C5000A581CDE7FD29000838B50546002945D0F6
:102C600051F8043C0C1F002BB8BFE41800F020FC06
:102C70001F4A1368104633B9636014602846BDE8E4
:102C8000384000F016BCA3420CD921686218934268
:102C900004BF1A685B68636004BF52182260046056
:102CA000ECE713465A680AB1A242FAD919685818D3
:102CB000A0420BD120680144581882421960DDD12E
:102CC000106852685A6001441960D7E702D90C2392
:102CD0002B60D3E7206821188A4204BF116852682C
:102CE000626004BF091821605C60C7E738BD00BF9F
:102CF0009000002070B5CD1C25F0030508350C2D83
:102D000038BF0C25002D064601DBA94203D90C2350
:102D10003360002070BD00F0CBFB234A14682146CD
:102D200091B9224C23681BB9304600F017FB206094
:102D30002946304600F012FB431C26D10C23336099
:102D4000304600F0B6FBE4E70B685B1B1AD40B2B94
:102D50000FD90B60CD50CC18304600F0AAFB04F11F
:102D60000B00231D20F00700C31A1BD05A42E2506B
:102D700070BD8C420DBF63684B686360136018BF01
:102D80000C46E9E70C464968CAE7C41C24F0030472
:102D9000A04205D0211A304600F0E0FA0130CDD033
:102DA0002560D9E770BD00BF90000020940000208E
:102DB0009368013B002B10B4936009DA9469A34235
:102DC00002DBCBB20A2B03D15DF8044BFFF7A4BCA6
:102DD0001368581C10601970C8B25DF8044B704736
:102DE000F8B506460F461446D518AC4201D100206E
:102DF00007E03A4614F8011B3046FFF7D9FF431CA1
:102E0000F3D1F8BD2DE9F04F9DB00C461746039362
:102E1000064618B183690BB9FFF730FE7C4B9C4224
:102E200057D17468A38918075DD52369002B5AD040
:102E30000023099320238DF8293030238DF82A3080
:102E40004FF0010BB846454615F8013B002B55D114
:102E5000B8EB070A0BD053463A4621463046FFF7F7
:102E6000BFFF013000F0C480099B5344099398F8D8
:102E70000030002B00F0BC8000234FF0FF320493A1
:102E80000793059206938DF853301A9305222978FB
:102E90006048FDF7ADF905F10108049B002831D128
:102EA000D90644BF20228DF853201A0744BF2B2295
:102EB0008DF853202A782A2A2CD0079A00210A203C
:102EC000A846013598F80030303B092B6DD971B315
:102ED00026E0514B9C4201D1B468A3E74F4B9C4282
:102EE00008BFF4689EE721463046FFF767FC0028DC
:102EF0009ED04FF0FF301DB0BDE8F08F252BA7D03E
:102F0000A846A0E7434A801A0BFA00F01843049041
:102F10004546BBE7039A111D12680391002A01DBA5
:102F2000079204E0524243F002030792049398F898
:102F300000302E2B10D198F801302A2B08F1010116
:102F400037D1039B1A1D1B680392002BB8BF4FF0AB
:102F5000FF3308F102080593314D98F80010032261
:102F60002846FDF745F940B14023401B03FA00F025
:102F7000049B0343049308F1010898F800102948C2
:102F80008DF82810062208F10107FDF731F9002815
:102F900034D0254B03BB039B073323F007030833CF
:102FA0000393099B4B4409934CE700FB0232012138
:102FB00086E70023059318460A258846013198F8CC
:102FC0000020303A092A03D9002BC5D00590C3E769
:102FD00005FB00200123F0E703AB00932246134BCF
:102FE00004A93046AFF30080B0F1FF3F8146D8D14D
:102FF000A3895B063FF57DAF09987CE703AB00939F
:1030000022460A4B04A9304600F088F8ECE700BFDE
:1030100064350008A43500088435000844350008EC
:10302000AA350008AE35000800000000E12D0008B8
:103030002DE9F04791461F468A680B69DDF820802C
:103040009342B8BF1346C9F8003091F843200646B2
:103050000C4612B10133C9F800302368990642BF0B
:10306000D9F800300233C9F80030256815F006059C
:1030700007D104F1190AE368D9F800209B1A9D4290
:1030800029DB94F843302268003318BF01239206ED
:103090002ED404F1430239463046C047013021D0D6
:1030A0002368E568D9F8002003F00603042B08BF65
:1030B000AD1AA36822690CBF25EAE5750025934285
:1030C000C4BF9B1AED184FF000091A344D451BD1AF
:1030D0000020BDE8F0870123524639463046C047FC
:1030E000013003D14FF0FF30BDE8F0870135C2E772
:1030F000E1185A1C302081F84300224494F845100E
:1031000082F843100233C4E7012322463946304691
:10311000C0470130E6D009F10109D7E72DE9F043B6
:1031200017460A7E85B06E2A984606460C460C9BCA
:1031300001F1430E00F0BC801AD8632A2ED00AD8C1
:10314000002A00F0C880582A00F08A8004F1420565
:1031500084F842202AE0642A01D0692AF6D1216845
:103160001A6811F0800F23D0111D1960136827E031
:10317000732A00F0B48008D86F2A2AD0702AE5D1CB
:103180000A6842F020020A6003E0752A21D0782AFA
:10319000DCD1782284F845206E4964E01A6801F198
:1031A0004205111D1960136884F842300123A3E021
:1031B00011F0400F02F104011960D7D0B2F90030CC
:1031C000002B03DA2D225B4284F8432062490A2255
:1031D00017E02068196810F0800F03D0081D1860F0
:1031E0000B6806E010F0400F01F104001860F7D002
:1031F0000B8859496F2A14BF0A220822002084F83C
:1032000043006568A560002DC0F29C80206820F016
:1032100004002060002B3FD1002D40F095807546C2
:10322000082A0BD12368DA0708D5236962689A4215
:10323000DEBF302305F8013C05F1FF35AEEB050399
:103240002361CDF800803B4603AA21463046FFF7B4
:10325000EFFE013055D14FF0FF3005B0BDE8F083EF
:1032600081F845203C492268186812F0800F00F16F
:1032700004051D6001D0036802E05506FBD50388F4
:10328000D00744BF42F0200222601BB9226822F01E
:10329000200222601022B1E77546B3FBF2F002FB78
:1032A0001033CB5C05F8013D03460028F5D1B7E7A4
:1032B00008681A68496910F0800F04D0101D186062
:1032C0001368196007E010F0400F02F10400186065
:1032D0001368F6D01980002323617546B1E71A6898
:1032E000111D19601568626800212846FCF780FFEF
:1032F00008B1401B606063682361002384F8433099
:103300009FE723692A4639463046C0470130A2D09C
:1033100023689B0707D5002504F11909E368039A80
:103320009B1A9D4205DBE068039B9842B8BF184694
:1033300093E701234A4639463046C04701308AD0D8
:103340000135EBE7002BA7D10B7884F8423004F16C
:10335000420565E7C6350008B535000838B5064CA6
:103360000023054608462360FFF7B2F8431C02D14C
:10337000236803B12B6038BD8C04002010B50C46C7
:10338000B1F90E1000F096F80028ABBF636DA38969
:103390001B1823F48053ACBF6365A38110BD2DE9D6
:1033A000F0411F468B89DB0505460C46164605D5C0
:1033B00002230022B1F90E1000F068F8A389B4F9D5
:1033C0000E1023F48053A38132463B462846BDE8C5
:1033D000F04100F017B810B50C46B1F90E1000F02E
:1033E00055F8431CA38915BF606523F4805343F44B
:1033F0008053A38118BFA38110BDB1F90E1000F056
:1034000013B8000038B5074C05460846114600229F
:1034100022601A46FFF74EF8431C02D1236803B11D
:103420002B6038BD8C04002038B5064C00230546BF
:1034300008462360FFF766F8431C02D1236803B1F6
:103440002B6038BD8C04002038B5074C002305469E
:10345000084611462360FFF758F8431C02D1236841
:1034600003B12B6038BD00BF8C04002038B5064C7A
:103470000023054608462360FFF74CF8431C02D1A1
:10348000236803B12B6038BD8C04002038B5074C8D
:10349000054608461146002222601A46FFF73CF80E
:1034A000431C02D1236803B12B6038BD8C0400207B
:1034B0007047704738B5074C05460846114600224C
:1034C00022601A46FEF7E8FF431C02D1236803B1CD
:1034D0002B6038BD8C040020F8B500BFF8BC08BCD8
:1034E0009E467047F8B500BFF8BC08BC9E467047C2
:1034F00048656C6C6F20576F726C640D004C534DB7
:1035000036445333333A2025303258202530325850
:103510000D0A004C4953334D444C3A202530325863
:1035200020253032580D0A00000000000000000085
:103530000102030406070809000000000102030459
:10354000100000200000000000000000000000004B
:10355000000000000000000000000000000000006B
:10356000000000000000000000000000000000005B
:10357000000000000000000000000000000000004B
:10358000000000000000000000000000000000003B
:10359000000000000000000000000000000000002B
:1035A00000000000232D302B2000686C4C00656665
:1035B0006745464700303132333435363738394184
:1035C000424344454600303132333435363738399A
:0835D00061626364656600009E
:0835D800E8CCFF7F01000000B8
:0435E000D501000809
:0435E400B101000829
:1035E80001000000100000000024F400100000207A
:1035F80000000000643500088435000844350008E0
:1036080000000000000000000000000000000000B2
:1036180000000000000000000000000000000000A2
:103628000000000000000000000000000000000092
:103638000000000000000000000000000000000082
:103648000000000000000000000000000000000072
:040000050800256961
:00000001FF
